{
  "_format": "hh-sol-artifact-1",
  "contractName": "CarbonTracker",
  "sourceName": "solidity/CarbonTracker.sol",
  "abi": [
    {
      "inputs": [
        {
          "internalType": "address",
          "name": "_net",
          "type": "address"
        },
        {
          "internalType": "address",
          "name": "_admin",
          "type": "address"
        }
      ],
      "stateMutability": "nonpayable",
      "type": "constructor"
    },
    {
      "anonymous": false,
      "inputs": [
        {
          "indexed": true,
          "internalType": "address",
          "name": "owner",
          "type": "address"
        },
        {
          "indexed": true,
          "internalType": "address",
          "name": "approved",
          "type": "address"
        },
        {
          "indexed": true,
          "internalType": "uint256",
          "name": "tokenId",
          "type": "uint256"
        }
      ],
      "name": "Approval",
      "type": "event"
    },
    {
      "anonymous": false,
      "inputs": [
        {
          "indexed": true,
          "internalType": "address",
          "name": "owner",
          "type": "address"
        },
        {
          "indexed": true,
          "internalType": "address",
          "name": "operator",
          "type": "address"
        },
        {
          "indexed": false,
          "internalType": "bool",
          "name": "approved",
          "type": "bool"
        }
      ],
      "name": "ApprovalForAll",
      "type": "event"
    },
    {
      "anonymous": false,
      "inputs": [
        {
          "indexed": true,
          "internalType": "uint256",
          "name": "trackerId",
          "type": "uint256"
        },
        {
          "indexed": false,
          "internalType": "uint256[]",
          "name": "productIds",
          "type": "uint256[]"
        },
        {
          "indexed": false,
          "internalType": "uint256[]",
          "name": "productAmounts",
          "type": "uint256[]"
        }
      ],
      "name": "ProductsUpdated",
      "type": "event"
    },
    {
      "anonymous": false,
      "inputs": [
        {
          "indexed": true,
          "internalType": "address",
          "name": "account",
          "type": "address"
        }
      ],
      "name": "RegisteredTracker",
      "type": "event"
    },
    {
      "anonymous": false,
      "inputs": [
        {
          "indexed": true,
          "internalType": "bytes32",
          "name": "role",
          "type": "bytes32"
        },
        {
          "indexed": true,
          "internalType": "bytes32",
          "name": "previousAdminRole",
          "type": "bytes32"
        },
        {
          "indexed": true,
          "internalType": "bytes32",
          "name": "newAdminRole",
          "type": "bytes32"
        }
      ],
      "name": "RoleAdminChanged",
      "type": "event"
    },
    {
      "anonymous": false,
      "inputs": [
        {
          "indexed": true,
          "internalType": "bytes32",
          "name": "role",
          "type": "bytes32"
        },
        {
          "indexed": true,
          "internalType": "address",
          "name": "account",
          "type": "address"
        },
        {
          "indexed": true,
          "internalType": "address",
          "name": "sender",
          "type": "address"
        }
      ],
      "name": "RoleGranted",
      "type": "event"
    },
    {
      "anonymous": false,
      "inputs": [
        {
          "indexed": true,
          "internalType": "bytes32",
          "name": "role",
          "type": "bytes32"
        },
        {
          "indexed": true,
          "internalType": "address",
          "name": "account",
          "type": "address"
        },
        {
          "indexed": true,
          "internalType": "address",
          "name": "sender",
          "type": "address"
        }
      ],
      "name": "RoleRevoked",
      "type": "event"
    },
    {
      "anonymous": false,
      "inputs": [
        {
          "indexed": true,
          "internalType": "uint256",
          "name": "trackerId",
          "type": "uint256"
        },
        {
          "indexed": true,
          "internalType": "address",
          "name": "trackee",
          "type": "address"
        }
      ],
      "name": "TrackeeChanged",
      "type": "event"
    },
    {
      "anonymous": false,
      "inputs": [
        {
          "indexed": true,
          "internalType": "uint256",
          "name": "trackerId",
          "type": "uint256"
        },
        {
          "indexed": true,
          "internalType": "address",
          "name": "tracker",
          "type": "address"
        },
        {
          "indexed": false,
          "internalType": "uint256[]",
          "name": "tokenIds",
          "type": "uint256[]"
        },
        {
          "indexed": false,
          "internalType": "uint256[]",
          "name": "tokenAmounts",
          "type": "uint256[]"
        },
        {
          "indexed": false,
          "internalType": "uint256",
          "name": "fromDate",
          "type": "uint256"
        },
        {
          "indexed": false,
          "internalType": "uint256",
          "name": "thruDate",
          "type": "uint256"
        }
      ],
      "name": "TrackerUpdated",
      "type": "event"
    },
    {
      "anonymous": false,
      "inputs": [
        {
          "indexed": true,
          "internalType": "address",
          "name": "from",
          "type": "address"
        },
        {
          "indexed": true,
          "internalType": "address",
          "name": "to",
          "type": "address"
        },
        {
          "indexed": true,
          "internalType": "uint256",
          "name": "tokenId",
          "type": "uint256"
        }
      ],
      "name": "Transfer",
      "type": "event"
    },
    {
      "anonymous": false,
      "inputs": [
        {
          "indexed": true,
          "internalType": "uint256",
          "name": "tokenId",
          "type": "uint256"
        },
        {
          "indexed": true,
          "internalType": "address",
          "name": "trackee",
          "type": "address"
        },
        {
          "indexed": false,
          "internalType": "uint256",
          "name": "amount",
          "type": "uint256"
        }
      ],
      "name": "VerifiedOutput",
      "type": "event"
    },
    {
      "anonymous": false,
      "inputs": [
        {
          "indexed": true,
          "internalType": "address",
          "name": "auditor",
          "type": "address"
        },
        {
          "indexed": true,
          "internalType": "address",
          "name": "trackee",
          "type": "address"
        }
      ],
      "name": "VerifierApproved",
      "type": "event"
    },
    {
      "anonymous": false,
      "inputs": [
        {
          "indexed": true,
          "internalType": "address",
          "name": "auditor",
          "type": "address"
        },
        {
          "indexed": true,
          "internalType": "address",
          "name": "trackee",
          "type": "address"
        }
      ],
      "name": "VerifierRemoved",
      "type": "event"
    },
    {
      "inputs": [],
      "name": "DEFAULT_ADMIN_ROLE",
      "outputs": [
        {
          "internalType": "bytes32",
          "name": "",
          "type": "bytes32"
        }
      ],
      "stateMutability": "view",
      "type": "function"
    },
    {
      "inputs": [],
      "name": "REGISTERED_TRACKER",
      "outputs": [
        {
          "internalType": "bytes32",
          "name": "",
          "type": "bytes32"
        }
      ],
      "stateMutability": "view",
      "type": "function"
    },
    {
      "inputs": [
        {
          "internalType": "uint256",
          "name": "trackerId",
          "type": "uint256"
        },
        {
          "internalType": "uint256",
          "name": "productId",
          "type": "uint256"
        },
        {
          "internalType": "string",
          "name": "unit",
          "type": "string"
        },
        {
          "internalType": "uint256",
          "name": "unitAmount",
          "type": "uint256"
        }
      ],
      "name": "_getUnitHash",
      "outputs": [
        {
          "internalType": "bytes32",
          "name": "",
          "type": "bytes32"
        }
      ],
      "stateMutability": "view",
      "type": "function"
    },
    {
      "inputs": [],
      "name": "_numOfProducts",
      "outputs": [
        {
          "internalType": "uint256",
          "name": "_value",
          "type": "uint256"
        }
      ],
      "stateMutability": "view",
      "type": "function"
    },
    {
      "inputs": [],
      "name": "_numOfUniqueTrackers",
      "outputs": [
        {
          "internalType": "uint256",
          "name": "_value",
          "type": "uint256"
        }
      ],
      "stateMutability": "view",
      "type": "function"
    },
    {
      "inputs": [
        {
          "internalType": "uint256",
          "name": "",
          "type": "uint256"
        }
      ],
      "name": "_productData",
      "outputs": [
        {
          "internalType": "uint256",
          "name": "trackerId",
          "type": "uint256"
        },
        {
          "internalType": "address",
          "name": "auditor",
          "type": "address"
        },
        {
          "internalType": "uint256",
          "name": "amount",
          "type": "uint256"
        },
        {
          "internalType": "uint256",
          "name": "available",
          "type": "uint256"
        },
        {
          "internalType": "string",
          "name": "name",
          "type": "string"
        },
        {
          "internalType": "string",
          "name": "unit",
          "type": "string"
        },
        {
          "internalType": "uint256",
          "name": "unitAmount",
          "type": "uint256"
        }
      ],
      "stateMutability": "view",
      "type": "function"
    },
    {
      "inputs": [
        {
          "internalType": "uint256",
          "name": "outAmount",
          "type": "uint256"
        },
        {
          "internalType": "uint256",
          "name": "totalTracked",
          "type": "uint256"
        }
      ],
      "name": "_verifyTotalTracked",
      "outputs": [],
      "stateMutability": "pure",
      "type": "function"
    },
    {
      "inputs": [
        {
          "internalType": "address",
          "name": "to",
          "type": "address"
        },
        {
          "internalType": "uint256",
          "name": "tokenId",
          "type": "uint256"
        }
      ],
      "name": "approve",
      "outputs": [],
      "stateMutability": "nonpayable",
      "type": "function"
    },
    {
      "inputs": [
        {
          "internalType": "address",
          "name": "verifier",
          "type": "address"
        },
        {
          "internalType": "bool",
          "name": "approve",
          "type": "bool"
        }
      ],
      "name": "approveVerifier",
      "outputs": [],
      "stateMutability": "nonpayable",
      "type": "function"
    },
    {
      "inputs": [
        {
          "internalType": "uint256",
          "name": "trackerId",
          "type": "uint256"
        }
      ],
      "name": "audit",
      "outputs": [],
      "stateMutability": "nonpayable",
      "type": "function"
    },
    {
      "inputs": [
        {
          "internalType": "address",
          "name": "owner",
          "type": "address"
        }
      ],
      "name": "balanceOf",
      "outputs": [
        {
          "internalType": "uint256",
          "name": "",
          "type": "uint256"
        }
      ],
      "stateMutability": "view",
      "type": "function"
    },
    {
      "inputs": [],
      "name": "decimalsEf",
      "outputs": [
        {
          "internalType": "uint256",
          "name": "",
          "type": "uint256"
        }
      ],
      "stateMutability": "view",
      "type": "function"
    },
    {
      "inputs": [
        {
          "internalType": "uint256",
          "name": "trackerId",
          "type": "uint256"
        }
      ],
      "name": "emissionsFactor",
      "outputs": [
        {
          "internalType": "uint256",
          "name": "",
          "type": "uint256"
        }
      ],
      "stateMutability": "view",
      "type": "function"
    },
    {
      "inputs": [
        {
          "internalType": "uint256",
          "name": "tokenId",
          "type": "uint256"
        }
      ],
      "name": "getApproved",
      "outputs": [
        {
          "internalType": "address",
          "name": "",
          "type": "address"
        }
      ],
      "stateMutability": "view",
      "type": "function"
    },
    {
      "inputs": [],
      "name": "getNumOfProducts",
      "outputs": [
        {
          "internalType": "uint256",
          "name": "",
          "type": "uint256"
        }
      ],
      "stateMutability": "view",
      "type": "function"
    },
    {
      "inputs": [],
      "name": "getNumOfUniqueTrackers",
      "outputs": [
        {
          "internalType": "uint256",
          "name": "",
          "type": "uint256"
        }
      ],
      "stateMutability": "view",
      "type": "function"
    },
    {
      "inputs": [
        {
          "internalType": "uint256",
          "name": "productId",
          "type": "uint256"
        },
        {
          "internalType": "address",
          "name": "owner",
          "type": "address"
        }
      ],
      "name": "getProductBalance",
      "outputs": [
        {
          "internalType": "uint256",
          "name": "",
          "type": "uint256"
        }
      ],
      "stateMutability": "view",
      "type": "function"
    },
    {
      "inputs": [
        {
          "internalType": "uint256",
          "name": "productId",
          "type": "uint256"
        }
      ],
      "name": "getProductDetails",
      "outputs": [
        {
          "internalType": "uint256",
          "name": "",
          "type": "uint256"
        },
        {
          "internalType": "uint256",
          "name": "",
          "type": "uint256"
        },
        {
          "internalType": "uint256",
          "name": "",
          "type": "uint256"
        }
      ],
      "stateMutability": "view",
      "type": "function"
    },
    {
      "inputs": [
        {
          "internalType": "uint256",
          "name": "productId",
          "type": "uint256"
        }
      ],
      "name": "getProductOptionalDetails",
      "outputs": [
        {
          "internalType": "string",
          "name": "",
          "type": "string"
        },
        {
          "internalType": "uint256",
          "name": "",
          "type": "uint256"
        },
        {
          "internalType": "string",
          "name": "",
          "type": "string"
        }
      ],
      "stateMutability": "view",
      "type": "function"
    },
    {
      "inputs": [
        {
          "internalType": "bytes32",
          "name": "role",
          "type": "bytes32"
        }
      ],
      "name": "getRoleAdmin",
      "outputs": [
        {
          "internalType": "bytes32",
          "name": "",
          "type": "bytes32"
        }
      ],
      "stateMutability": "view",
      "type": "function"
    },
    {
      "inputs": [
        {
          "internalType": "uint256",
          "name": "trackerId",
          "type": "uint256"
        }
      ],
      "name": "getTokenAmounts",
      "outputs": [
        {
          "internalType": "uint256[]",
          "name": "",
          "type": "uint256[]"
        },
        {
          "internalType": "uint256[]",
          "name": "",
          "type": "uint256[]"
        }
      ],
      "stateMutability": "view",
      "type": "function"
    },
    {
      "inputs": [
        {
          "internalType": "uint256",
          "name": "trackerId",
          "type": "uint256"
        }
      ],
      "name": "getTokenIds",
      "outputs": [
        {
          "internalType": "uint256[]",
          "name": "",
          "type": "uint256[]"
        }
      ],
      "stateMutability": "view",
      "type": "function"
    },
    {
      "inputs": [
        {
          "internalType": "uint256",
          "name": "trackerId",
          "type": "uint256"
        }
      ],
      "name": "getTotalEmissions",
      "outputs": [
        {
          "internalType": "uint256",
          "name": "",
          "type": "uint256"
        }
      ],
      "stateMutability": "view",
      "type": "function"
    },
    {
      "inputs": [
        {
          "internalType": "uint256",
          "name": "trackerId",
          "type": "uint256"
        }
      ],
      "name": "getTrackerDetails",
      "outputs": [
        {
          "components": [
            {
              "internalType": "uint256",
              "name": "trackerId",
              "type": "uint256"
            },
            {
              "internalType": "address",
              "name": "trackee",
              "type": "address"
            },
            {
              "internalType": "address",
              "name": "auditor",
              "type": "address"
            },
            {
              "internalType": "uint256",
              "name": "totalProductAmounts",
              "type": "uint256"
            },
            {
              "internalType": "uint256",
              "name": "fromDate",
              "type": "uint256"
            },
            {
              "internalType": "uint256",
              "name": "thruDate",
              "type": "uint256"
            },
            {
              "internalType": "address",
              "name": "createdBy",
              "type": "address"
            },
            {
              "internalType": "uint256",
              "name": "dateCreated",
              "type": "uint256"
            },
            {
              "internalType": "uint256",
              "name": "dateUpdated",
              "type": "uint256"
            },
            {
              "internalType": "string",
              "name": "metadata",
              "type": "string"
            },
            {
              "internalType": "string",
              "name": "description",
              "type": "string"
            }
          ],
          "internalType": "struct CarbonTracker.CarbonTrackerDetails",
          "name": "",
          "type": "tuple"
        },
        {
          "internalType": "uint256",
          "name": "",
          "type": "uint256"
        },
        {
          "internalType": "uint256[]",
          "name": "",
          "type": "uint256[]"
        }
      ],
      "stateMutability": "view",
      "type": "function"
    },
    {
      "inputs": [
        {
          "internalType": "uint256",
          "name": "trackerId",
          "type": "uint256"
        }
      ],
      "name": "getTrackerIds",
      "outputs": [
        {
          "internalType": "uint256[]",
          "name": "",
          "type": "uint256[]"
        }
      ],
      "stateMutability": "view",
      "type": "function"
    },
    {
      "inputs": [
        {
          "internalType": "uint256",
          "name": "trackerId",
          "type": "uint256"
        }
      ],
      "name": "getTrackerTokenDetails",
      "outputs": [
        {
          "internalType": "uint256[]",
          "name": "",
          "type": "uint256[]"
        },
        {
          "internalType": "uint256[]",
          "name": "",
          "type": "uint256[]"
        }
      ],
      "stateMutability": "view",
      "type": "function"
    },
    {
      "inputs": [
        {
          "internalType": "bytes32",
          "name": "role",
          "type": "bytes32"
        },
        {
          "internalType": "address",
          "name": "account",
          "type": "address"
        }
      ],
      "name": "grantRole",
      "outputs": [],
      "stateMutability": "nonpayable",
      "type": "function"
    },
    {
      "inputs": [
        {
          "internalType": "bytes32",
          "name": "role",
          "type": "bytes32"
        },
        {
          "internalType": "address",
          "name": "account",
          "type": "address"
        }
      ],
      "name": "hasRole",
      "outputs": [
        {
          "internalType": "bool",
          "name": "",
          "type": "bool"
        }
      ],
      "stateMutability": "view",
      "type": "function"
    },
    {
      "inputs": [
        {
          "internalType": "address",
          "name": "owner",
          "type": "address"
        },
        {
          "internalType": "address",
          "name": "operator",
          "type": "address"
        }
      ],
      "name": "isApprovedForAll",
      "outputs": [
        {
          "internalType": "bool",
          "name": "",
          "type": "bool"
        }
      ],
      "stateMutability": "view",
      "type": "function"
    },
    {
      "inputs": [],
      "name": "name",
      "outputs": [
        {
          "internalType": "string",
          "name": "",
          "type": "string"
        }
      ],
      "stateMutability": "view",
      "type": "function"
    },
    {
      "inputs": [],
      "name": "net",
      "outputs": [
        {
          "internalType": "contract NetEmissionsTokenNetwork",
          "name": "",
          "type": "address"
        }
      ],
      "stateMutability": "view",
      "type": "function"
    },
    {
      "inputs": [],
      "name": "netAddress",
      "outputs": [
        {
          "internalType": "address",
          "name": "",
          "type": "address"
        }
      ],
      "stateMutability": "view",
      "type": "function"
    },
    {
      "inputs": [
        {
          "internalType": "address",
          "name": "",
          "type": "address"
        },
        {
          "internalType": "address",
          "name": "",
          "type": "address"
        },
        {
          "internalType": "uint256[]",
          "name": "",
          "type": "uint256[]"
        },
        {
          "internalType": "uint256[]",
          "name": "",
          "type": "uint256[]"
        },
        {
          "internalType": "bytes",
          "name": "",
          "type": "bytes"
        }
      ],
      "name": "onERC1155BatchReceived",
      "outputs": [
        {
          "internalType": "bytes4",
          "name": "",
          "type": "bytes4"
        }
      ],
      "stateMutability": "nonpayable",
      "type": "function"
    },
    {
      "inputs": [
        {
          "internalType": "address",
          "name": "",
          "type": "address"
        },
        {
          "internalType": "address",
          "name": "",
          "type": "address"
        },
        {
          "internalType": "uint256",
          "name": "",
          "type": "uint256"
        },
        {
          "internalType": "uint256",
          "name": "",
          "type": "uint256"
        },
        {
          "internalType": "bytes",
          "name": "",
          "type": "bytes"
        }
      ],
      "name": "onERC1155Received",
      "outputs": [
        {
          "internalType": "bytes4",
          "name": "",
          "type": "bytes4"
        }
      ],
      "stateMutability": "nonpayable",
      "type": "function"
    },
    {
      "inputs": [
        {
          "internalType": "uint256",
          "name": "tokenId",
          "type": "uint256"
        }
      ],
      "name": "ownerOf",
      "outputs": [
        {
          "internalType": "address",
          "name": "",
          "type": "address"
        }
      ],
      "stateMutability": "view",
      "type": "function"
    },
    {
      "inputs": [
        {
          "internalType": "uint256",
          "name": "",
          "type": "uint256"
        },
        {
          "internalType": "address",
          "name": "",
          "type": "address"
        }
      ],
      "name": "productBalance",
      "outputs": [
        {
          "internalType": "uint256",
          "name": "",
          "type": "uint256"
        }
      ],
      "stateMutability": "view",
      "type": "function"
    },
    {
      "inputs": [
        {
          "internalType": "uint256",
          "name": "trackerId",
          "type": "uint256"
        },
        {
          "internalType": "uint256[]",
          "name": "productIds",
          "type": "uint256[]"
        },
        {
          "internalType": "uint256[]",
          "name": "productAmounts",
          "type": "uint256[]"
        },
        {
          "internalType": "string[]",
          "name": "productNames",
          "type": "string[]"
        },
        {
          "internalType": "string[]",
          "name": "productUnits",
          "type": "string[]"
        },
        {
          "internalType": "uint256[]",
          "name": "productUnitAmounts",
          "type": "uint256[]"
        }
      ],
      "name": "productsUpdate",
      "outputs": [],
      "stateMutability": "nonpayable",
      "type": "function"
    },
    {
      "inputs": [
        {
          "internalType": "address",
          "name": "tracker",
          "type": "address"
        }
      ],
      "name": "registerTracker",
      "outputs": [],
      "stateMutability": "nonpayable",
      "type": "function"
    },
    {
      "inputs": [
        {
          "internalType": "uint256",
          "name": "trackerId",
          "type": "uint256"
        }
      ],
      "name": "removeAudit",
      "outputs": [],
      "stateMutability": "nonpayable",
      "type": "function"
    },
    {
      "inputs": [
        {
          "internalType": "bytes32",
          "name": "role",
          "type": "bytes32"
        },
        {
          "internalType": "address",
          "name": "account",
          "type": "address"
        }
      ],
      "name": "renounceRole",
      "outputs": [],
      "stateMutability": "nonpayable",
      "type": "function"
    },
    {
      "inputs": [
        {
          "internalType": "bytes32",
          "name": "role",
          "type": "bytes32"
        },
        {
          "internalType": "address",
          "name": "account",
          "type": "address"
        }
      ],
      "name": "revokeRole",
      "outputs": [],
      "stateMutability": "nonpayable",
      "type": "function"
    },
    {
      "inputs": [
        {
          "internalType": "address",
          "name": "from",
          "type": "address"
        },
        {
          "internalType": "address",
          "name": "to",
          "type": "address"
        },
        {
          "internalType": "uint256",
          "name": "tokenId",
          "type": "uint256"
        }
      ],
      "name": "safeTransferFrom",
      "outputs": [],
      "stateMutability": "nonpayable",
      "type": "function"
    },
    {
      "inputs": [
        {
          "internalType": "address",
          "name": "from",
          "type": "address"
        },
        {
          "internalType": "address",
          "name": "to",
          "type": "address"
        },
        {
          "internalType": "uint256",
          "name": "tokenId",
          "type": "uint256"
        },
        {
          "internalType": "bytes",
          "name": "data",
          "type": "bytes"
        }
      ],
      "name": "safeTransferFrom",
      "outputs": [],
      "stateMutability": "nonpayable",
      "type": "function"
    },
    {
      "inputs": [
        {
          "internalType": "address",
          "name": "operator",
          "type": "address"
        },
        {
          "internalType": "bool",
          "name": "approved",
          "type": "bool"
        }
      ],
      "name": "setApprovalForAll",
      "outputs": [],
      "stateMutability": "nonpayable",
      "type": "function"
    },
    {
      "inputs": [
        {
          "internalType": "bytes4",
          "name": "interfaceId",
          "type": "bytes4"
        }
      ],
      "name": "supportsInterface",
      "outputs": [
        {
          "internalType": "bool",
          "name": "",
          "type": "bool"
        }
      ],
      "stateMutability": "view",
      "type": "function"
    },
    {
      "inputs": [],
      "name": "symbol",
      "outputs": [
        {
          "internalType": "string",
          "name": "",
          "type": "string"
        }
      ],
      "stateMutability": "view",
      "type": "function"
    },
    {
      "inputs": [
        {
          "internalType": "uint256",
          "name": "tokenId",
          "type": "uint256"
        }
      ],
      "name": "tokenURI",
      "outputs": [
        {
          "internalType": "string",
          "name": "",
          "type": "string"
        }
      ],
      "stateMutability": "view",
      "type": "function"
    },
    {
      "inputs": [
        {
          "internalType": "address",
          "name": "issuedTo",
          "type": "address"
        },
        {
          "internalType": "address",
          "name": "trackee",
          "type": "address"
        },
        {
          "internalType": "uint256[]",
          "name": "tokenIds",
          "type": "uint256[]"
        },
        {
          "internalType": "uint256[]",
          "name": "tokenAmounts",
          "type": "uint256[]"
        },
        {
          "internalType": "uint256",
          "name": "fromDate",
          "type": "uint256"
        },
        {
          "internalType": "uint256",
          "name": "thruDate",
          "type": "uint256"
        },
        {
          "internalType": "string",
          "name": "description",
          "type": "string"
        }
      ],
      "name": "track",
      "outputs": [],
      "stateMutability": "nonpayable",
      "type": "function"
    },
    {
      "inputs": [
        {
          "internalType": "uint256",
          "name": "trackerId",
          "type": "uint256"
        },
        {
          "internalType": "uint256",
          "name": "sourceTrackerId",
          "type": "uint256"
        },
        {
          "internalType": "uint256",
          "name": "productId",
          "type": "uint256"
        },
        {
          "internalType": "uint256",
          "name": "productAmount",
          "type": "uint256"
        }
      ],
      "name": "trackProduct",
      "outputs": [],
      "stateMutability": "nonpayable",
      "type": "function"
    },
    {
      "inputs": [
        {
          "internalType": "uint256",
          "name": "trackerId",
          "type": "uint256"
        },
        {
          "internalType": "uint256[]",
          "name": "tokenIds",
          "type": "uint256[]"
        },
        {
          "internalType": "uint256[]",
          "name": "tokenAmounts",
          "type": "uint256[]"
        },
        {
          "internalType": "uint256",
          "name": "fromDate",
          "type": "uint256"
        },
        {
          "internalType": "uint256",
          "name": "thruDate",
          "type": "uint256"
        },
        {
          "internalType": "string",
          "name": "description",
          "type": "string"
        }
      ],
      "name": "trackUpdate",
      "outputs": [],
      "stateMutability": "nonpayable",
      "type": "function"
    },
    {
      "inputs": [
        {
          "internalType": "address",
          "name": "from",
          "type": "address"
        },
        {
          "internalType": "address",
          "name": "to",
          "type": "address"
        },
        {
          "internalType": "uint256",
          "name": "tokenId",
          "type": "uint256"
        }
      ],
      "name": "transferFrom",
      "outputs": [],
      "stateMutability": "nonpayable",
      "type": "function"
    },
    {
      "inputs": [
        {
          "internalType": "uint256",
          "name": "productId",
          "type": "uint256"
        },
        {
          "internalType": "uint256",
          "name": "productAmount",
          "type": "uint256"
        },
        {
          "internalType": "address",
          "name": "trackee",
          "type": "address"
        }
      ],
      "name": "transferProduct",
      "outputs": [],
      "stateMutability": "nonpayable",
      "type": "function"
    },
    {
      "inputs": [
        {
          "internalType": "uint256",
          "name": "trackerId",
          "type": "uint256"
        },
        {
          "internalType": "uint256",
          "name": "productId",
          "type": "uint256"
        },
        {
          "internalType": "string",
          "name": "unit",
          "type": "string"
        },
        {
          "internalType": "uint256",
          "name": "unitAmount",
          "type": "uint256"
        },
        {
          "internalType": "bytes",
          "name": "signature",
          "type": "bytes"
        }
      ],
      "name": "verifyUnitSignature",
      "outputs": [
        {
          "internalType": "bool",
          "name": "",
          "type": "bool"
        }
      ],
      "stateMutability": "view",
      "type": "function"
    }
  ],
  "bytecode": "0x60806040523480156200001157600080fd5b5060405162005c3938038062005c39833981016040819052620000349162000266565b6040805160208082018084526000808452845192830190945283825282519293919262000063929190620001a3565b50805162000079906001906020840190620001a3565b5050600780546001600160a01b0385166001600160a01b0319918216811790925560088054909116909117905550620f4240601155620000bb600082620000ef565b620000e77f4f9730948b73761de8f37a0aea1760c5eef658d37d8c456767b81e17c01f30ed82620000ef565b5050620002da565b620000fb8282620000ff565b5050565b60008281526006602090815260408083206001600160a01b038516845290915290205460ff16620000fb5760008281526006602090815260408083206001600160a01b03851684529091529020805460ff191660011790556200015f3390565b6001600160a01b0316816001600160a01b0316837f2f8788117e7eff1d82e926ec794901d17c78024a50270940304540a733656f0d60405160405180910390a45050565b828054620001b1906200029d565b90600052602060002090601f016020900481019282620001d5576000855562000220565b82601f10620001f057805160ff191683800117855562000220565b8280016001018555821562000220579182015b828111156200022057825182559160200191906001019062000203565b506200022e92915062000232565b5090565b5b808211156200022e576000815560010162000233565b80516001600160a01b03811681146200026157600080fd5b919050565b6000806040838503121562000279578182fd5b620002848362000249565b9150620002946020840162000249565b90509250929050565b600181811c90821680620002b257607f821691505b60208210811415620002d457634e487b7160e01b600052602260045260246000fd5b50919050565b61594f80620002ea6000396000f3fe608060405234801561001057600080fd5b50600436106103275760003560e01c806381d5f7f6116101b8578063c2fff4a511610104578063d547741f116100a2578063e985e9c51161007c578063e985e9c51461078e578063ecc3356a146107ca578063f23a6e61146107dd578063f2600e4e146107fc57610327565b8063d547741f14610755578063e28a148f14610768578063e54a96461461077b57610327565b8063cdec8358116100de578063cdec835814610709578063cf2f46641461071c578063d0b124b61461072f578063d0c9e6e21461074257610327565b8063c2fff4a5146106d0578063c6af45e8146106e3578063c87b56dd146106f657610327565b8063a23ccfe811610171578063b173e5701161014b578063b173e5701461065f578063b88d4fde14610672578063b9531f2114610685578063bc197c811461069857610327565b8063a23ccfe814610631578063a2ce6a7914610639578063a7d6619d1461064c57610327565b806381d5f7f6146105b25780638a59a935146105d957806391d14854146105fb57806395d89b411461060e578063a217fddf14610616578063a22cb4651461061e57610327565b80633b4e06e6116102775780635ad25ac81161023057806363a248571161020a57806363a24857146105565780636813b53b1461056957806370a08231146105975780637c7768d6146105aa57610327565b80635ad25ac81461050e5780635e7231c3146105305780636352211e1461054357610327565b80633b4e06e6146104935780633b8470b0146104b457806340e6c970146104c757806342842e0e146104d157806357991d30146104e4578063594d46051461050457610327565b80631856f262116102e45780632f2ff15d116102be5780632f2ff15d1461041c578063330dffec1461042f57806336568abe1461045a5780633abb340f1461046d57610327565b80631856f262146103d357806323b872dd146103e6578063248a9ca3146103f957610327565b806301ffc9a71461032c57806306fdde03146103545780630709cf3a14610369578063081812fc14610380578063095ea7b3146103ab5780630b71d18b146103c0575b600080fd5b61033f61033a366004614f3d565b61080f565b60405190151581526020015b60405180910390f35b61035c61083c565b60405161034b919061546a565b61037260115481565b60405190815260200161034b565b61039361038e366004614eeb565b6108ce565b6040516001600160a01b03909116815260200161034b565b6103be6103b9366004614ea6565b6108f5565b005b6103726103ce366004614eeb565b610a10565b6103be6103e1366004614bc5565b610a30565b6103be6103f4366004614d6e565b610c28565b610372610407366004614eeb565b60009081526006602052604090206001015490565b6103be61042a366004614f1b565b610c59565b61037261043d366004614f1b565b600f60209081526000928352604080842090915290825290205481565b6103be610468366004614f1b565b610c7e565b61048061047b366004614eeb565b610cfc565b60405161034b97969594939291906156fd565b6104a66104a1366004614eeb565b610e53565b60405161034b929190615403565b6103be6104c236600461520a565b610f9f565b600c546103729081565b6103be6104df366004614d6e565b611176565b6104f76104f2366004614eeb565b611191565b60405161034b91906153f0565b600d546103729081565b61052161051c366004614eeb565b6111f3565b60405161034b9392919061547d565b6103be61053e3660046150da565b6113d7565b610393610551366004614eeb565b611473565b6103be610564366004615048565b6114d3565b61057c610577366004614eeb565b611545565b6040805193845260208401929092529082015260600161034b565b6103726105a5366004614bc5565b6116e5565b61037261176b565b6103727f4f9730948b73761de8f37a0aea1760c5eef658d37d8c456767b81e17c01f30ed81565b6105ec6105e7366004614eeb565b61177b565b60405161034b9392919061560b565b61033f610609366004614f1b565b611a2a565b61035c611a57565b610372600081565b6103be61062c366004614e70565b611a66565b610372611a71565b610372610647366004615152565b611a7c565b6103be61065a366004614e70565b611ab7565b6103be61066d366004614eeb565b611d76565b6103be610680366004614da9565b611dfb565b6104f7610693366004614eeb565b611e33565b6106b76106a6366004614c11565b63bc197c8160e01b95945050505050565b6040516001600160e01b0319909116815260200161034b565b600754610393906001600160a01b031681565b6103be6106f1366004614cb6565b611e96565b61035c610704366004614eeb565b611f00565b610372610717366004614eeb565b611f74565b6103be61072a366004614f75565b611fc1565b61033f61073d3660046151a7565b612616565b610372610750366004614f1b565b6126d8565b6103be610763366004614f1b565b612771565b6103be61077636600461511e565b612796565b600854610393906001600160a01b031681565b61033f61079c366004614bdf565b6001600160a01b03918216600090815260056020908152604080832093909416825291909152205460ff1690565b6103be6107d8366004614eeb565b612979565b6106b76107eb366004614e0e565b63f23a6e6160e01b95945050505050565b6104a661080a366004614eeb565b6129c1565b60006001600160e01b03198216637965db0b60e01b1480610834575061083482612b01565b90505b919050565b60606000805461084b9061584f565b80601f01602080910402602001604051908101604052809291908181526020018280546108779061584f565b80156108c45780601f10610899576101008083540402835291602001916108c4565b820191906000526020600020905b8154815290600101906020018083116108a757829003601f168201915b5050505050905090565b60006108d982612b26565b506000908152600460205260409020546001600160a01b031690565b600061090082611473565b9050806001600160a01b0316836001600160a01b031614156109735760405162461bcd60e51b815260206004820152602160248201527f4552433732313a20617070726f76616c20746f2063757272656e74206f776e656044820152603960f91b60648201526084015b60405180910390fd5b336001600160a01b038216148061098f575061098f813361079c565b610a015760405162461bcd60e51b815260206004820152603e60248201527f4552433732313a20617070726f76652063616c6c6572206973206e6f7420746f60448201527f6b656e206f776e6572206e6f7220617070726f76656420666f7220616c6c0000606482015260840161096a565b610a0b8383612b88565b505050565b6000818152600a6020526040812081610a2882612bf6565b949350505050565b806001600160a01b038116331480610b3d5750600754604080516376ce475560e01b815290516001600160a01b03909216916391d148549183916376ce475591600480820192602092909190829003018186803b158015610a9057600080fd5b505afa158015610aa4573d6000803e3d6000fd5b505050506040513d601f19601f82011682018060405250810190610ac89190614f03565b6040516001600160e01b031960e084901b168152600481019190915233602482015260440160206040518083038186803b158015610b0557600080fd5b505afa158015610b19573d6000803e3d6000fd5b505050506040513d601f19601f82011682018060405250810190610b3d9190614ecf565b610bc65760405162461bcd60e51b815260206004820152604e60248201527f434c4d383a3a73656c664f7241756469746f723a206d73672e73656e6465722060448201527f646f6573206e6f74206f776e20746869732061646472657373206f722069732060648201526d3737ba1030b71030bab234ba37b960911b608482015260a40161096a565b610bf07f4f9730948b73761de8f37a0aea1760c5eef658d37d8c456767b81e17c01f30ed83612e38565b6040516001600160a01b038316907fef8ce2b8e324ee947b09d9cf7f74e5589078af3a3e3f5266e9752c8284e4cd8790600090a25050565b610c323382612e42565b610c4e5760405162461bcd60e51b815260040161096a9061556f565b610a0b838383612ec0565b600082815260066020526040902060010154610c748161305c565b610a0b8383613066565b6001600160a01b0381163314610cee5760405162461bcd60e51b815260206004820152602f60248201527f416363657373436f6e74726f6c3a2063616e206f6e6c792072656e6f756e636560448201526e103937b632b9903337b91039b2b63360891b606482015260840161096a565b610cf882826130ec565b5050565b600b602052600090815260409020805460018201546002830154600384015460048501805494956001600160a01b039094169492939192610d3c9061584f565b80601f0160208091040260200160405190810160405280929190818152602001828054610d689061584f565b8015610db55780601f10610d8a57610100808354040283529160200191610db5565b820191906000526020600020905b815481529060010190602001808311610d9857829003601f168201915b505050505090806005018054610dca9061584f565b80601f0160208091040260200160405190810160405280929190818152602001828054610df69061584f565b8015610e435780601f10610e1857610100808354040283529160200191610e43565b820191906000526020600020905b815481529060010190602001808311610e2657829003601f168201915b5050505050908060060154905087565b6000818152600a60209081526040808320805482518185028101850190935280835260609485949293909290918491830182828015610eb157602002820191906000526020600020905b815481526020019060010190808311610e9d575b50505050509050600081516001600160401b03811115610ee157634e487b7160e01b600052604160045260246000fd5b604051908082528060200260200182016040528015610f0a578160200160208202803683370190505b50905060005b8251811015610f9357836002016000848381518110610f3f57634e487b7160e01b600052603260045260246000fd5b6020026020010151815260200190815260200160002054828281518110610f7657634e487b7160e01b600052603260045260246000fd5b602090810291909101015280610f8b81615884565b915050610f10565b50909350915050915091565b60008481526009602052604090206002015484906001600160a01b031615610fd95760405162461bcd60e51b815260040161096a906155bd565b610fe285613153565b610fec85336131c9565b6000838152600b60205260409020548514156110855760405162461bcd60e51b815260206004820152604c60248201527f434c4d383a3a747261636b50726f647563743a2070726f64756374277320747260448201527f61636b657249642063616e206e6f74206265207468652073616d65206173207460648201526b1a19481d1c9858dad95c925960a21b608482015260a40161096a565b6000838152600f6020908152604080832033845290915290205482106111255760405162461bcd60e51b815260206004820152604960248201527f434c4d383a3a747261636b50726f647563743a2070726f64756374416d6f756e60448201527f7420657863656564732070726f647563747320617661696c61626c6520666f72606482015268103a3930b739b332b960b91b608482015260a40161096a565b6000838152600f602090815260408083203384529091529020546111499083613280565b6000848152600f6020908152604080832033845290915290205561116f8585858561328c565b5050505050565b610a0b83838360405180602001604052806000815250611dfb565b6000818152600a60209081526040918290208054835181840281018401909452808452606093928301828280156111e757602002820191906000526020600020905b8154815260200190600101908083116111d3575b50505050509050919050565b606060006060600080600b60008781526020019081526020016000206040518060e0016040529081600082015481526020016001820160009054906101000a90046001600160a01b03166001600160a01b03166001600160a01b0316815260200160028201548152602001600382015481526020016004820180546112779061584f565b80601f01602080910402602001604051908101604052809291908181526020018280546112a39061584f565b80156112f05780601f106112c5576101008083540402835291602001916112f0565b820191906000526020600020905b8154815290600101906020018083116112d357829003601f168201915b505050505081526020016005820180546113099061584f565b80601f01602080910402602001604051908101604052809291908181526020018280546113359061584f565b80156113825780601f1061135757610100808354040283529160200191611382565b820191906000526020600020905b81548152906001019060200180831161136557829003601f168201915b5050505050815260200160068201548152505090506113be81604001516113b86011548460c001516135f590919063ffffffff16565b90613601565b608082015160a090920151919790965090945092505050565b80821015610cf85760405162461bcd60e51b815260206004820152605860248201527f434c4d383a3a5f766572696679546f74616c547261636b65643a20746f74616c60448201527f20616d6f756e7420747261636b65642065786365656473206f7574707574206f60648201527f6620746f6b656e49642066726f6d20747261636b657249640000000000000000608482015260a40161096a565b6000818152600260205260408120546001600160a01b0316806108345760405162461bcd60e51b8152602060048201526018602482015277115490cdcc8c4e881a5b9d985b1a59081d1bdad95b88125160421b604482015260640161096a565b60008681526009602052604090206002015486906001600160a01b03161561150d5760405162461bcd60e51b815260040161096a906155bd565b8661151781613153565b600088815260096020526040902042600882015561153981898989898961360d565b505b5050505050505050565b6000818152600b60209081526040808320815160e0810183528154815260018201546001600160a01b031693810193909352600281015491830191909152600381015460608301526004810180548493849384939192909160808401916115ab9061584f565b80601f01602080910402602001604051908101604052809291908181526020018280546115d79061584f565b80156116245780601f106115f957610100808354040283529160200191611624565b820191906000526020600020905b81548152906001019060200180831161160757829003601f168201915b5050505050815260200160058201805461163d9061584f565b80601f01602080910402602001604051908101604052809291908181526020018280546116699061584f565b80156116b65780601f1061168b576101008083540402835291602001916116b6565b820191906000526020600020905b81548152906001019060200180831161169957829003601f168201915b505050918352505060069190910154602090910152805160408201516060909201519097919650945092505050565b60006001600160a01b03821661174f5760405162461bcd60e51b815260206004820152602960248201527f4552433732313a2061646472657373207a65726f206973206e6f7420612076616044820152683634b21037bbb732b960b91b606482015260840161096a565b506001600160a01b031660009081526003602052604090205490565b6000611776600c5490565b905090565b6117f36040518061016001604052806000815260200160006001600160a01b0316815260200160006001600160a01b0316815260200160008152602001600081526020016000815260200160006001600160a01b03168152602001600081526020016000815260200160608152602001606081525090565b6000828152600960209081526040808320600a909252822060609190600381018461181d83612bf6565b60408051610160810182528654815260018701546001600160a01b03908116602083015260028801548116928201929092526003870154606082015260048701546080820152600587015460a0820152600687015490911660c0820152600786015460e08201526008860154610100820152600986018054929350869284928692909185916101208401916118b19061584f565b80601f01602080910402602001604051908101604052809291908181526020018280546118dd9061584f565b801561192a5780601f106118ff5761010080835404028352916020019161192a565b820191906000526020600020905b81548152906001019060200180831161190d57829003601f168201915b50505050508152602001600a820180546119439061584f565b80601f016020809104026020016040519081016040528092919081815260200182805461196f9061584f565b80156119bc5780601f10611991576101008083540402835291602001916119bc565b820191906000526020600020905b81548152906001019060200180831161199f57829003601f168201915b505050505081525050925080805480602002602001604051908101604052809291908181526020018280548015611a1257602002820191906000526020600020905b8154815260200190600101908083116119fe575b50505050509050965096509650505050509193909250565b60008281526006602090815260408083206001600160a01b038516845290915290205460ff165b92915050565b60606001805461084b9061584f565b610cf8338383613c5e565b6000611776600d5490565b60003085858585604051602001611a979594939291906152c2565b604051602081830303815290604052805190602001209050949350505050565b33611ae27f4f9730948b73761de8f37a0aea1760c5eef658d37d8c456767b81e17c01f30ed82611a2a565b611b4d5760405162461bcd60e51b815260206004820152603660248201527f434c4d383a3a72656769737465726564547261636b65723a20746865206164646044820152751c995cdcc81a5cc81b9bdd081c9959da5cdd195c995960521b606482015260840161096a565b6007546040516349b9055760e01b81526001600160a01b038581166004830152909116906349b905579060240160206040518083038186803b158015611b9257600080fd5b505afa158015611ba6573d6000803e3d6000fd5b505050506040513d601f19601f82011682018060405250810190611bca9190614ecf565b80611bd3575081155b611c535760405162461bcd60e51b8152602060048201526044602482018190527f434c4d383a3a617070726f766556657269666965723a20616464726573732069908201527f73206e6f742061207265676973746572656420656d697373696f6e732061756460648201526334ba37b960e11b608482015260a40161096a565b6001600160a01b038316331415611cc85760405162461bcd60e51b815260206004820152603360248201527f434c4d383a3a617070726f766556657269666965723a2061756469746f72206360448201527230b73737ba1031329036b9b39739b2b73232b960691b606482015260840161096a565b6001600160a01b03831660009081526010602090815260408083203384529091529020805460ff19168315801591909117909155611d3b5760405133906001600160a01b038516907ff31635902a304a612155085cc8916b9ab86fc115155b10b33980f6cb8165c54e90600090a3610a0b565b60405133906001600160a01b038516907f490861baee43b8ebd28f134f99c0aa7848888c4bde402256ad4cf455d147aed690600090a3505050565b60008181526009602052604090206002015481906001600160a01b031615611db05760405162461bcd60e51b815260040161096a906155bd565b6000828152600960205260409020600101548290611dd6906001600160a01b0316613d2d565b5050600090815260096020526040902060020180546001600160a01b03191633179055565b611e053383612e42565b611e215760405162461bcd60e51b815260040161096a9061556f565b611e2d84848484613db6565b50505050565b6000818152600a60209081526040918290206005018054835181840281018401909452808452606093928301828280156111e757602002820191906000526020600020908154815260200190600101908083116111d35750505050509050919050565b6000611ea187613de9565b9050611eb1888260000154613e52565b8315611ebf57600481018490555b8215611ecd57600581018390555b815115611eeb578151611ee990600a83019060208501906149cd565b505b85511561153b5761153b81878787878761360d565b6060611f0b82612b26565b6000611f2260408051602081019091526000815290565b90506000815111611f425760405180602001604052806000815250611f6d565b80611f4c84613f95565b604051602001611f5d92919061530f565b6040516020818303038152906040525b9392505050565b6000818152600960205260408120600381015415611fb157611fa981600301546113b8601154611fa387610a10565b906135f5565b915050610837565b6000915050610837565b50919050565b60008681526009602052604090206002015486906001600160a01b031615611ffb5760405162461bcd60e51b815260040161096a906155bd565b8661200581613153565b600088815260096020526040902060010154889061202b906001600160a01b0316613d2d565b600089815260096020526040902088518851146120c45760405162461bcd60e51b815260206004820152604b60248201527f434c4d383a3a70726f64756374735570646174653a2070726f64756374416d6f60448201527f756e747320616e642070726f6475637449647320617265206e6f74207468652060648201526a0e6c2daca40d8cadccee8d60ab1b608482015260a40161096a565b885187511461214d5760405162461bcd60e51b815260206004820152604960248201527f434c4d383a3a70726f64756374735570646174653a2070726f647563744e616d60448201527f657320616e642070726f6475637449647320617265206e6f74207468652073616064820152680daca40d8cadccee8d60bb1b608482015260a40161096a565b885185511461216e5760405162461bcd60e51b815260040161096a906154a8565b885186511461218f5760405162461bcd60e51b815260040161096a906154a8565b6000805b8a518110156125cc5760008b82815181106121be57634e487b7160e01b600052603260045260246000fd5b60200260200101511115612366578a81815181106121ec57634e487b7160e01b600052603260045260246000fd5b602002602001015191508b600b60008481526020019081526020016000206000015414612283576040805162461bcd60e51b81526020600482015260248101919091527f434c4d383a3a70726f64756374735570646174653a2070726f6475637449647360448201527f5b695d20646f6573206e6f742062656c6f6e6720746f20747261636b65724964606482015260840161096a565b6122c18a82815181106122a657634e487b7160e01b600052603260045260246000fd5b6020026020010151846003015461328090919063ffffffff16565b60038401556000828152600b60205260409020600101546001600160a01b031633146123615760405162461bcd60e51b815260206004820152604360248201527f434c4d383a3a70726f64756374735570646174653a206d73672e73656e64657260448201527f206973206e6f74207468652061756469746f72206f6620746869732070726f646064820152621d58dd60ea1b608482015260a40161096a565b61240d565b612374600d80546001019055565b600d5491508b600b60008481526020019081526020016000206000018190555033600b600084815260200190815260200160002060010160006101000a8154816001600160a01b0302191690836001600160a01b03160217905550600a60008d81526020019081526020016000206003018290806001815401808255809150506001900390600052602060002001600090919091909150555b88818151811061242d57634e487b7160e01b600052603260045260246000fd5b6020026020010151600b6000848152602001908152602001600020600401908051906020019061245e9291906149cd565b5086818151811061247f57634e487b7160e01b600052603260045260246000fd5b6020026020010151600b6000848152602001908152602001600020600601819055508781815181106124c157634e487b7160e01b600052603260045260246000fd5b6020026020010151600b600084815260200190815260200160002060050190805190602001906124f29291906149cd565b5089818151811061251357634e487b7160e01b600052603260045260246000fd5b6020026020010151600b60008481526020019081526020016000206002018190555089818151811061255557634e487b7160e01b600052603260045260246000fd5b6020026020010151600b6000848152602001908152602001600020600301819055506125b58a828151811061259a57634e487b7160e01b600052603260045260246000fd5b602002602001015184600301546140af90919063ffffffff16565b6003840155806125c481615884565b915050612193565b5081546040517fcae18be6040b3a94c418e2e09d130e25f25a0069beec7edc902c803cf7f61ebf90612601908d908d90615403565b60405180910390a25050505050505050505050565b600085612622816140bb565b8661262c81613153565b6000878152600b60205260408120600101546001600160a01b0316906126aa6126578b8b8b8b611a7c565b6040517f19457468657265756d205369676e6564204d6573736167653a0a3332000000006020820152603c8101829052600090605c01604051602081830303815290604052805190602001209050919050565b90506001600160a01b0382166126c08288614135565b6001600160a01b0316149a9950505050505050505050565b6000828152600b60205260408120546126f090611473565b6001600160a01b0316826001600160a01b03161415612748576000838152600b6020908152604080832060030154600f83528184206001600160a01b038716855290925290912054612741916140af565b9050611a51565b506000918252600f602090815260408084206001600160a01b0393909316845291905290205490565b60008281526006602052604090206001015461278c8161305c565b610a0b83836130ec565b6000838152600b6020526040812080549091906127b290611473565b6001600160a01b0316336001600160a01b031614156127dd5781546127d6906140bb565b5060038101545b6000858152600f6020908152604080832033845290915281205461280190836140af565b90508481116128925760405162461bcd60e51b815260206004820152605160248201527f434c4d383a3a7472616e7366657250726f647563743a2070726f64756374416d60448201527f6f756e7420657863656564732070726f6475637420617661696c61626c6520696064820152701b881cdbdd5c98d9551c9858dad95c9259607a1b608482015260a40161096a565b600082156128d457828611156128ba576128ac83876157f5565b6000600386015590506128cf565b60038401546128c99087613280565b60038501555b6128d7565b50845b801561291c576000878152600f602090815260408083203384529091529020546129019082613280565b6000888152600f602090815260408083203384529091529020555b6000878152600f602090815260408083206001600160a01b038916845290915290205461294990876140af565b6000978852600f60209081526040808a206001600160a01b039098168a5296905294909620939093555050505050565b600081815260096020526040902060010154819061299f906001600160a01b0316613d2d565b50600090815260096020526040902060020180546001600160a01b0319169055565b6000818152600a60209081526040808320805482518185028101850190935280835260609485949293909290918491830182828015612a1f57602002820191906000526020600020905b815481526020019060010190808311612a0b575b50505050509050600081516001600160401b03811115612a4f57634e487b7160e01b600052604160045260246000fd5b604051908082528060200260200182016040528015612a78578160200160208202803683370190505b50905060005b8251811015610f9357836002016000848381518110612aad57634e487b7160e01b600052603260045260246000fd5b6020026020010151815260200190815260200160002054828281518110612ae457634e487b7160e01b600052603260045260246000fd5b602090810291909101015280612af981615884565b915050612a7e565b60006001600160e01b03198216630271189760e51b1480610834575061083482614159565b6000818152600260205260409020546001600160a01b0316612b855760405162461bcd60e51b8152602060048201526018602482015277115490cdcc8c4e881a5b9d985b1a59081d1bdad95b88125160421b604482015260640161096a565b50565b600081815260046020526040902080546001600160a01b0319166001600160a01b0384169081179091558190612bbd82611473565b6001600160a01b03167f8c5be1e5ebec7d5bd14f71427d1e84f3dd0314c0f7b2291e5b200ac8c7c3b92560405160405180910390a45050565b60008181805b8254811015612c6b57612c57856002016000858481548110612c2e57634e487b7160e01b600052603260045260246000fd5b9060005260206000200154815260200190815260200160002054836140af90919063ffffffff16565b915080612c6381615884565b915050612bfc565b506060600085600501805480602002602001604051908101604052809291908181526020018280548015612cbe57602002820191906000526020600020905b815481526020019060010190808311612caa575b50505050509050600080600090505b8251811015612e2c57876007016000848381518110612cfc57634e487b7160e01b600052603260045260246000fd5b60200260200101518152602001908152602001600020915081600001805480602002602001604051908101604052809291908181526020018280548015612d6257602002820191906000526020600020905b815481526020019060010190808311612d4e575b50505050509350600080600090505b8551811015612e1757836002016000878381518110612da057634e487b7160e01b600052603260045260246000fd5b60200260200101518152602001908152602001600020549150612e03612dfc6011546113b8612df5898881518110612de857634e487b7160e01b600052603260045260246000fd5b6020026020010151611f74565b86906135f5565b88906140af565b965080612e0f81615884565b915050612d71565b50508080612e2490615884565b915050612ccd565b50929695505050505050565b610cf88282613066565b600080612e4e83611473565b9050806001600160a01b0316846001600160a01b03161480612e9557506001600160a01b0380821660009081526005602090815260408083209388168352929052205460ff165b80610a285750836001600160a01b0316612eae846108ce565b6001600160a01b031614949350505050565b826001600160a01b0316612ed382611473565b6001600160a01b031614612f375760405162461bcd60e51b815260206004820152602560248201527f4552433732313a207472616e736665722066726f6d20696e636f72726563742060448201526437bbb732b960d91b606482015260840161096a565b6001600160a01b038216612f995760405162461bcd60e51b8152602060048201526024808201527f4552433732313a207472616e7366657220746f20746865207a65726f206164646044820152637265737360e01b606482015260840161096a565b612fa4600082612b88565b6001600160a01b0383166000908152600360205260408120805460019290612fcd9084906157f5565b90915550506001600160a01b0382166000908152600360205260408120805460019290612ffb9084906157aa565b909155505060008181526002602052604080822080546001600160a01b0319166001600160a01b0386811691821790925591518493918716917fddf252ad1be2c89b69c2b068fc378daa952ba7f163c4a11628f55a4df523b3ef91a4610a0b565b612b85813361417e565b6130708282611a2a565b610cf85760008281526006602090815260408083206001600160a01b03851684529091529020805460ff191660011790556130a83390565b6001600160a01b0316816001600160a01b0316837f2f8788117e7eff1d82e926ec794901d17c78024a50270940304540a733656f0d60405160405180910390a45050565b6130f68282611a2a565b15610cf85760008281526006602090815260408083206001600160a01b0385168085529252808320805460ff1916905551339285917ff6391f5c32d9c69d2a47ea670b442974b53935d1edc7fd64eb21e047a839171b9190a45050565b8061315d600c5490565b1015612b855760405162461bcd60e51b815260206004820152603560248201527f434c4d383a3a5f747261636b65724578697374733a20747261636b657220746f6044820152741ad95b88125108191bd95cc81b9bdd08195e1a5cdd605a1b606482015260840161096a565b6131d2816141e2565b806131f65750806001600160a01b03166131eb83611473565b6001600160a01b0316145b610cf85760405162461bcd60e51b815260206004820152604f60248201527f434c4d383a3a5f69734f776e65723a206d73672e73656e646572206973206e6f60448201527f74207468652061756469746f72206f66206f7220646f6573206e6f74206f776e60648201526e081d1a1a5cc81d1c9858dad95c9259608a1b608482015260a40161096a565b6000611f6d82846157f5565b6000848152600a60209081526040808320868452600781018352818420868552600281019093529220546132c090846140af565b600085815260028301602081815260408084208590558984526006870182528084205489855260018701835293205491905290911561332e5780613329578254600181810185556000858152602080822090930189905585548982529186019092526040909120555b613462565b801561345057825460011015613404578254839061334e906001906157f5565b8154811061336c57634e487b7160e01b600052603260045260246000fd5b600091825260209091200154836133846001846157f5565b815481106133a257634e487b7160e01b600052603260045260246000fd5b906000526020600020018190555080836001016000856000016001856133c891906157f5565b815481106133e657634e487b7160e01b600052603260045260246000fd5b90600052602060002001548152602001908152602001600020819055505b60008681526001808501602052604082209190915583548491613426916157f5565b8154811061344457634e487b7160e01b600052603260045260246000fd5b60009182526020822001555b60008681526002840160205260408120555b8254156134a2578161349d57600584018054600181018255600082815260208082209092018a90559154898352600687019091526040909120555b61153b565b81156135ce57600584015460011015613581576005840180546134c7906001906157f5565b815481106134e557634e487b7160e01b600052603260045260246000fd5b90600052602060002001548460050160018461350191906157f5565b8154811061351f57634e487b7160e01b600052603260045260246000fd5b9060005260206000200181905550818460060160008660050160018661354591906157f5565b8154811061356357634e487b7160e01b600052603260045260246000fd5b90600052602060002001548152602001908152602001600020819055505b60008781526006850160205260408120556005840180546135a4906001906157f5565b815481106135c257634e487b7160e01b600052603260045260246000fd5b60009182526020822001555b60008781526007850160205260408120906135e98282614a51565b50505050505050505050565b6000611f6d82846157d6565b6000611f6d82846157c2565b855460075460008281526009602052604090819020600101549051633e612c8d60e21b81526001600160a01b03918216600482015291169063f984b2349060240160206040518083038186803b15801561366657600080fd5b505afa15801561367a573d6000803e3d6000fd5b505050506040513d601f19601f8201168201806040525081019061369e9190614ecf565b6137105760405162461bcd60e51b815260206004820152603760248201527f434c4d383a3a72656769737465726564496e6475737472793a2074686520616460448201527f6472657373206973206e6f742072656769737465726564000000000000000000606482015260840161096a565b6001870154613727906001600160a01b0316613d2d565b831561373557600487018490555b821561374357600587018390555b81511561376157815161375f90600a89019060208501906149cd565b505b85518551146137e65760405162461bcd60e51b815260206004820152604560248201527f434c4d383a3a5f747261636b546f6b656e733a20746f6b656e416d6f756e747360448201527f20616e6420746f6b656e49647320617265206e6f74207468652073616d65206c6064820152640cadccee8d60db1b608482015260a40161096a565b86546000908152600a60205260408120905b8751811015613c105760075488516000916001600160a01b031690637f157c9b9030908c908690811061383b57634e487b7160e01b600052603260045260246000fd5b60200260200101516040518363ffffffff1660e01b81526004016138749291906001600160a01b03929092168252602082015260400190565b604080518083038186803b15801561388b57600080fd5b505afa15801561389f573d6000803e3d6000fd5b505050506040513d601f19601f820116820180604052508101906138c391906150fb565b506008549091506001600160a01b031633148061395357508782815181106138fb57634e487b7160e01b600052603260045260246000fd5b6020026020010151613950600e60008c868151811061392a57634e487b7160e01b600052603260045260246000fd5b60200260200101518152602001908152602001600020548361328090919063ffffffff16565b10155b6139eb5760405162461bcd60e51b815260206004820152605d60248201527f434c4d383a3a5f747261636b546f6b656e733a20746f6b656e416d6f756e747360448201527f5b695d2069732067726561746572207468616e2077686174206973206176616960648201527f6c61626c6520746f2074686520747261636b657220636f6e7472616374000000608482015260a40161096a565b613a5f888381518110613a0e57634e487b7160e01b600052603260045260246000fd5b6020026020010151600e60008c8681518110613a3a57634e487b7160e01b600052603260045260246000fd5b60200260200101518152602001908152602001600020546140af90919063ffffffff16565b600e60008b8581518110613a8357634e487b7160e01b600052603260045260246000fd5b602002602001015181526020019081526020016000208190555060008360010160008b8581518110613ac557634e487b7160e01b600052603260045260246000fd5b602002602001015181526020019081526020016000205490506000600760009054906101000a90046001600160a01b03166001600160a01b031663127d5ad08c8681518110613b2457634e487b7160e01b600052603260045260246000fd5b60200260200101516040518263ffffffff1660e01b8152600401613b4a91815260200190565b60206040518083038186803b158015613b6257600080fd5b505afa158015613b76573d6000803e3d6000fd5b505050506040513d601f19601f82011682018060405250810190613b9a919061523b565b9050613bfa858c8681518110613bc057634e487b7160e01b600052603260045260246000fd5b60200260200101518c8781518110613be857634e487b7160e01b600052603260045260246000fd5b6020026020010151858560ff166142a4565b5050508080613c0890615884565b9150506137f8565b5087546040513391907ff739febd63941a495aedbbe2904daf1f12f653420da0213529a1f3eb6d61c1c490613c4c908b908b908b908b90615431565b60405180910390a35050505050505050565b816001600160a01b0316836001600160a01b03161415613cc05760405162461bcd60e51b815260206004820152601960248201527f4552433732313a20617070726f766520746f2063616c6c657200000000000000604482015260640161096a565b6001600160a01b03838116600081815260056020908152604080832094871680845294825291829020805460ff191686151590811790915591519182527f17307eab39ab6107e8899845ad3d59bd9653f200f220920489ca2b5937696c31910160405180910390a3505050565b613d36816141e2565b612b855760405162461bcd60e51b8152602060048201526044602482018190527f434c4d383a3a5f697341756469746f723a205f747261636b6565206973206e6f908201527f7420616e20617070726f7665642061756469746f72206f662074686520747261606482015263636b656560e01b608482015260a40161096a565b613dc1848484612ec0565b613dcd8484848461435c565b611e2d5760405162461bcd60e51b815260040161096a9061551d565b6000613df9600c80546001019055565b6000613e04600c5490565b60008181526009602052604090209081556006810180546001600160a01b031990811633179091556001820180546001600160a01b0387169216919091179055426007820155915050919050565b6001600160a01b038216613ea85760405162461bcd60e51b815260206004820181905260248201527f4552433732313a206d696e7420746f20746865207a65726f2061646472657373604482015260640161096a565b6000818152600260205260409020546001600160a01b031615613f0d5760405162461bcd60e51b815260206004820152601c60248201527f4552433732313a20746f6b656e20616c7265616479206d696e74656400000000604482015260640161096a565b6001600160a01b0382166000908152600360205260408120805460019290613f369084906157aa565b909155505060008181526002602052604080822080546001600160a01b0319166001600160a01b03861690811790915590518392907fddf252ad1be2c89b69c2b068fc378daa952ba7f163c4a11628f55a4df523b3ef908290a4610cf8565b606081613fba57506040805180820190915260018152600360fc1b6020820152610837565b8160005b8115613fe45780613fce81615884565b9150613fdd9050600a836157c2565b9150613fbe565b6000816001600160401b0381111561400c57634e487b7160e01b600052604160045260246000fd5b6040519080825280601f01601f191660200182016040528015614036576020820181803683370190505b5090505b8415610a285761404b6001836157f5565b9150614058600a8661589f565b6140639060306157aa565b60f81b81838151811061408657634e487b7160e01b600052603260045260246000fd5b60200101906001600160f81b031916908160001a9053506140a8600a866157c2565b945061403a565b6000611f6d82846157aa565b6000818152600960205260409020600201546001600160a01b0316612b855760405162461bcd60e51b815260206004820152602a60248201527f434c4d383a3a5f6973417564697465643a20747261636b65724964206973206e6044820152691bdd08185d591a5d195960b21b606482015260840161096a565b60008060006141448585614466565b91509150614151816144ac565b509392505050565b60006001600160e01b03198216637965db0b60e01b14806108345750610834826146af565b6141888282611a2a565b610cf8576141a0816001600160a01b031660146146ff565b6141ab8360206146ff565b6040516020016141bc92919061533e565b60408051601f198184030181529082905262461bcd60e51b825261096a9160040161546a565b3360009081526010602090815260408083206001600160a01b038516845290915281205460ff168061083457506007546040516349b9055760e01b81523360048201526001600160a01b03909116906349b905579060240160206040518083038186803b15801561425257600080fd5b505afa158015614266573d6000803e3d6000fd5b505050506040513d601f19601f8201168201806040525081019061428a9190614ecf565b806108345750506008546001600160a01b03163314919050565b80600414156142de5760008481526002860160205260409020546142c890846140af565b6000858152600287016020526040902055614314565b80600214156143145760008481526002860160205260409020546143029084613280565b60008581526002870160205260409020555b60008481526002860160205260409020541561116f578161116f5750508254600180820185556000858152602080822090930185905585549481529401905250604090912055565b60006001600160a01b0384163b1561445e57604051630a85bd0160e11b81526001600160a01b0385169063150b7a02906143a09033908990889088906004016153b3565b602060405180830381600087803b1580156143ba57600080fd5b505af19250505080156143ea575060408051601f3d908101601f191682019092526143e791810190614f59565b60015b614444573d808015614418576040519150601f19603f3d011682016040523d82523d6000602084013e61441d565b606091505b50805161443c5760405162461bcd60e51b815260040161096a9061551d565b805181602001fd5b6001600160e01b031916630a85bd0160e11b149050610a28565b506001610a28565b60008082516041141561449d5760208301516040840151606085015160001a614491878285856148e0565b945094505050506144a5565b506000905060025b9250929050565b60008160048111156144ce57634e487b7160e01b600052602160045260246000fd5b14156144d957612b85565b60018160048111156144fb57634e487b7160e01b600052602160045260246000fd5b14156145495760405162461bcd60e51b815260206004820152601860248201527f45434453413a20696e76616c6964207369676e61747572650000000000000000604482015260640161096a565b600281600481111561456b57634e487b7160e01b600052602160045260246000fd5b14156145b95760405162461bcd60e51b815260206004820152601f60248201527f45434453413a20696e76616c6964207369676e6174757265206c656e67746800604482015260640161096a565b60038160048111156145db57634e487b7160e01b600052602160045260246000fd5b14156146345760405162461bcd60e51b815260206004820152602260248201527f45434453413a20696e76616c6964207369676e6174757265202773272076616c604482015261756560f01b606482015260840161096a565b600481600481111561465657634e487b7160e01b600052602160045260246000fd5b1415612b855760405162461bcd60e51b815260206004820152602260248201527f45434453413a20696e76616c6964207369676e6174757265202776272076616c604482015261756560f01b606482015260840161096a565b60006001600160e01b031982166380ac58cd60e01b14806146e057506001600160e01b03198216635b5e139f60e01b145b8061083457506301ffc9a760e01b6001600160e01b0319831614610834565b6060600061470e8360026157d6565b6147199060026157aa565b6001600160401b0381111561473e57634e487b7160e01b600052604160045260246000fd5b6040519080825280601f01601f191660200182016040528015614768576020820181803683370190505b509050600360fc1b8160008151811061479157634e487b7160e01b600052603260045260246000fd5b60200101906001600160f81b031916908160001a905350600f60fb1b816001815181106147ce57634e487b7160e01b600052603260045260246000fd5b60200101906001600160f81b031916908160001a90535060006147f28460026157d6565b6147fd9060016157aa565b90505b6001811115614891576f181899199a1a9b1b9c1cb0b131b232b360811b85600f166010811061483f57634e487b7160e01b600052603260045260246000fd5b1a60f81b82828151811061486357634e487b7160e01b600052603260045260246000fd5b60200101906001600160f81b031916908160001a90535060049490941c9361488a81615838565b9050614800565b508315611f6d5760405162461bcd60e51b815260206004820181905260248201527f537472696e67733a20686578206c656e67746820696e73756666696369656e74604482015260640161096a565b6000807f7fffffffffffffffffffffffffffffff5d576e7357a4501ddfe92f46681b20a083111561491757506000905060036149c4565b8460ff16601b1415801561492f57508460ff16601c14155b1561494057506000905060046149c4565b6040805160008082526020820180845289905260ff881692820192909252606081018690526080810185905260019060a0016020604051602081039080840390855afa158015614994573d6000803e3d6000fd5b5050604051601f1901519150506001600160a01b0381166149bd576000600192509250506149c4565b9150600090505b94509492505050565b8280546149d99061584f565b90600052602060002090601f0160209004810192826149fb5760008555614a41565b82601f10614a1457805160ff1916838001178555614a41565b82800160010185558215614a41579182015b82811115614a41578251825591602001919060010190614a26565b50614a4d929150614a6b565b5090565b5080546000825590600052602060002090810190612b8591905b5b80821115614a4d5760008155600101614a6c565b80356001600160a01b038116811461083757600080fd5b600082601f830112614aa7578081fd5b81356020614abc614ab783615787565b615757565b82815281810190858301855b85811015614af157614adf898684358b0101614b5b565b84529284019290840190600101614ac8565b5090979650505050505050565b600082601f830112614b0e578081fd5b81356020614b1e614ab783615787565b80838252828201915082860187848660051b8901011115614b3d578586fd5b855b85811015614af157813584529284019290840190600101614b3f565b600082601f830112614b6b578081fd5b81356001600160401b03811115614b8457614b846158df565b614b97601f8201601f1916602001615757565b818152846020838601011115614bab578283fd5b816020850160208301379081016020019190915292915050565b600060208284031215614bd6578081fd5b611f6d82614a80565b60008060408385031215614bf1578081fd5b614bfa83614a80565b9150614c0860208401614a80565b90509250929050565b600080600080600060a08688031215614c28578081fd5b614c3186614a80565b9450614c3f60208701614a80565b935060408601356001600160401b0380821115614c5a578283fd5b614c6689838a01614afe565b94506060880135915080821115614c7b578283fd5b614c8789838a01614afe565b93506080880135915080821115614c9c578283fd5b50614ca988828901614b5b565b9150509295509295909350565b600080600080600080600060e0888a031215614cd0578182fd5b614cd988614a80565b9650614ce760208901614a80565b955060408801356001600160401b0380821115614d02578384fd5b614d0e8b838c01614afe565b965060608a0135915080821115614d23578384fd5b614d2f8b838c01614afe565b955060808a0135945060a08a0135935060c08a0135915080821115614d52578283fd5b50614d5f8a828b01614b5b565b91505092959891949750929550565b600080600060608486031215614d82578283fd5b614d8b84614a80565b9250614d9960208501614a80565b9150604084013590509250925092565b60008060008060808587031215614dbe578182fd5b614dc785614a80565b9350614dd560208601614a80565b92506040850135915060608501356001600160401b03811115614df6578182fd5b614e0287828801614b5b565b91505092959194509250565b600080600080600060a08688031215614e25578283fd5b614e2e86614a80565b9450614e3c60208701614a80565b9350604086013592506060860135915060808601356001600160401b03811115614e64578182fd5b614ca988828901614b5b565b60008060408385031215614e82578182fd5b614e8b83614a80565b91506020830135614e9b816158f5565b809150509250929050565b60008060408385031215614eb8578182fd5b614ec183614a80565b946020939093013593505050565b600060208284031215614ee0578081fd5b8151611f6d816158f5565b600060208284031215614efc578081fd5b5035919050565b600060208284031215614f14578081fd5b5051919050565b60008060408385031215614f2d578182fd5b82359150614c0860208401614a80565b600060208284031215614f4e578081fd5b8135611f6d81615903565b600060208284031215614f6a578081fd5b8151611f6d81615903565b60008060008060008060c08789031215614f8d578384fd5b8635955060208701356001600160401b0380821115614faa578586fd5b614fb68a838b01614afe565b96506040890135915080821115614fcb578586fd5b614fd78a838b01614afe565b95506060890135915080821115614fec578384fd5b614ff88a838b01614a97565b9450608089013591508082111561500d578384fd5b6150198a838b01614a97565b935060a089013591508082111561502e578283fd5b5061503b89828a01614afe565b9150509295509295509295565b60008060008060008060c08789031215615060578384fd5b8635955060208701356001600160401b038082111561507d578586fd5b6150898a838b01614afe565b9650604089013591508082111561509e578586fd5b6150aa8a838b01614afe565b9550606089013594506080890135935060a08901359150808211156150cd578283fd5b5061503b89828a01614b5b565b600080604083850312156150ec578182fd5b50508035926020909101359150565b6000806040838503121561510d578182fd5b505080516020909101519092909150565b600080600060608486031215615132578081fd5b833592506020840135915061514960408501614a80565b90509250925092565b60008060008060808587031215615167578182fd5b843593506020850135925060408501356001600160401b0381111561518a578283fd5b61519687828801614b5b565b949793965093946060013593505050565b600080600080600060a086880312156151be578283fd5b853594506020860135935060408601356001600160401b03808211156151e2578485fd5b6151ee89838a01614b5b565b9450606088013593506080880135915080821115614c9c578283fd5b6000806000806080858703121561521f578182fd5b5050823594602084013594506040840135936060013592509050565b60006020828403121561524c578081fd5b815160ff81168114611f6d578182fd5b6000815180845260208085019450808401835b8381101561528b5781518752958201959082019060010161526f565b509495945050505050565b600081518084526152ae81602086016020860161580c565b601f01601f19169290920160200192915050565b60006bffffffffffffffffffffffff198760601b16825285601483015284603483015283516152f881605485016020880161580c565b605492019182019290925260740195945050505050565b6000835161532181846020880161580c565b83519083019061533581836020880161580c565b01949350505050565b60007f416363657373436f6e74726f6c3a206163636f756e74200000000000000000008252835161537681601785016020880161580c565b7001034b99036b4b9b9b4b733903937b6329607d1b60179184019182015283516153a781602884016020880161580c565b01602801949350505050565b6001600160a01b03858116825284166020820152604081018390526080606082018190526000906153e690830184615296565b9695505050505050565b600060208252611f6d602083018461525c565b600060408252615416604083018561525c565b8281036020840152615428818561525c565b95945050505050565b600060808252615444608083018761525c565b8281036020840152615456818761525c565b604084019590955250506060015292915050565b600060208252611f6d6020830184615296565b6000606082526154906060830186615296565b84602084015282810360408401526153e68185615296565b6020808252604f908201527f434c4d383a3a70726f64756374735570646174653a2070726f64756374556e6960408201527f74416d6f756e747320616e642070726f6475637449647320617265206e6f742060608201526e0e8d0ca40e6c2daca40d8cadccee8d608b1b608082015260a00190565b60208082526032908201527f4552433732313a207472616e7366657220746f206e6f6e20455243373231526560408201527131b2b4bb32b91034b6b83632b6b2b73a32b960711b606082015260800190565b6020808252602e908201527f4552433732313a2063616c6c6572206973206e6f7420746f6b656e206f776e6560408201526d1c881b9bdc88185c1c1c9bdd995960921b606082015260800190565b6020808252602e908201527f434c4d383a3a6e6f74417564697465643a20747261636b65724964206973206160408201526d1b1c9958591e48185d591a5d195960921b606082015260800190565b60006060825284516060830152602085015161563260808401826001600160a01b03169052565b5060408501516001600160a01b03811660a084015250606085015160c0830152608085015160e083015260a0850151610100818185015260c08701519150610120615687818601846001600160a01b03169052565b60e08801519250610140838187015282890151935061016092508383870152818901519350826101808701526156c16101c0870185615296565b93508089015192505050605f19848303016101a08501526156e28282615296565b91505084602084015282810360408401526153e6818561525c565b600088825260018060a01b038816602083015286604083015285606083015260e0608083015261573060e0830186615296565b82810360a08401526157428186615296565b9150508260c083015298975050505050505050565b604051601f8201601f191681016001600160401b038111828210171561577f5761577f6158df565b604052919050565b60006001600160401b038211156157a0576157a06158df565b5060051b60200190565b600082198211156157bd576157bd6158b3565b500190565b6000826157d1576157d16158c9565b500490565b60008160001904831182151516156157f0576157f06158b3565b500290565b600082821015615807576158076158b3565b500390565b60005b8381101561582757818101518382015260200161580f565b83811115611e2d5750506000910152565b600081615847576158476158b3565b506000190190565b600181811c9082168061586357607f821691505b60208210811415611fbb57634e487b7160e01b600052602260045260246000fd5b6000600019821415615898576158986158b3565b5060010190565b6000826158ae576158ae6158c9565b500690565b634e487b7160e01b600052601160045260246000fd5b634e487b7160e01b600052601260045260246000fd5b634e487b7160e01b600052604160045260246000fd5b8015158114612b8557600080fd5b6001600160e01b031981168114612b8557600080fdfea264697066735822122027112636ac571058dcfc9c5a199a46034ca63bd43ebc670e8c0ad7468f1fccf564736f6c63430008030033",
  "linkReferences": {},
  "deployedLinkReferences": {}
}